:020000040800F2
:10000000483A00209D0100080B2200080F1F00083D
:1000100009220008E9100008592900080000000022
:1000200000000000000000000000000005010008C2
:10003000711200080000000049010008AD26000808
:10004000B7010008B7010008B7010008B7010008B0
:10005000B7010008B7010008B7010008B7010008A0
:10006000B7010008B7010008B7010008B701000890
:10007000B7010008B7010008B7010008B701000880
:10008000B7010008B7010008B7010008B701000870
:10009000B7010008B7010008B7010008B701000860
:1000A000B7010008B7010008B7010008B701000850
:1000B000B7010008B701000839270008B701000898
:1000C000B7010008B7010008B7010008B701000830
:1000D000B7010008B7010008B7010008B701000820
:1000E000B7010008B7010008B7010008DFF810D019
:1000F00000F0D8FC0048004795360008AFF30080B8
:10010000483A0020224B19680868B0E8F00F80F3E5
:100110000988BFF36F8F4FF0000080F311884EF015
:100120000D0E70470000000006480068006880F36C
:10013000088862B661B6BFF34F8FBFF36F8F00DFE1
:1001400000BF00BF08ED00E0EFF30980BFF36F8F41
:100150000F4B1A6820E9F00F106008B54FF05000FF
:1001600080F31188BFF34F8FBFF36F8F04F04EF908
:100170004FF0000080F31188BDE808401968086856
:10018000B0E8F00F80F30988BFF36F8F704700BFAE
:1001900014000020EFF305807047000006488047F8
:1001A00006480047FEE7FEE7FEE7FEE7FEE7FEE75C
:1001B000FEE7FEE7FEE7FEE737270008ED00000850
:1001C000202A04DB203A21FA02F00021704721FAAC
:1001D00002F3D040C2F12002914008431946704713
:1001E00040EA01039B0703D009E008C9121F08C0B9
:1001F000042AFAD203E011F8013B00F8013B521E39
:10020000F9D27047D2B201E000F8012B491EFBD2AF
:1002100070470022F6E710B513460A460446194611
:10022000FFF7F0FF204610BDF0B480EA0102D40FC2
:100230004200B2EB410F02D20246084611464A0084
:1002400042D0C30DDDB2C1F3C752AD1A202D35DA4D
:10025000C1F3160141F4000204B15242C5F1200677
:1002600002FA06F12A411044B3EBD05F23D0C4B1A7
:10027000012DA0EBC35009DCF0BC4FF0004202EAB4
:10028000C352DBB200F5000000F021BB400000F1DA
:10029000807000EBC350A0F1807040EAD17049003B
:1002A00009E0490841EAC071A0EBC35000F5000025
:1002B000400800EBC350F0BC00F000BB61420122DB
:1002C00002EB4101001BF6E7F0BC704781F00041F2
:1002D000AAE780F00040A7E780EA010210B502F02B
:1002E0000043400022D04A001FD0010E01EB1261F2
:1002F000C0F35600C2F3560240F4000042F400027C
:10030000A0FB022000047F39140400D0401C50EAF6
:10031000124001D44000491EC2B20C0604EBD010BA
:10032000401C4008802A02D003E0002010BD20F0CD
:100330000100002900DA0020184310BD30B480EA23
:10034000010202F0004530F0004221F0004013D0DD
:1003500090B1C30DD40DC2F31601C0F31600E41A18
:1003600041F4000140F400027D34914201D3641C49
:1003700000E04900002C02DA30BC002070474FF446
:1003800000000023914201D3891A034340084FEA39
:100390004101F7D151B1914202D14FF0004105E046
:1003A00002D24FF0010101E06FF0010103EBC450F4
:1003B000284430BC00F082BA420005D0C0F3C752D6
:1003C0005242914201DC0020704700EBC15070475F
:1003D0002DE9FE4F804681EA0300C00F0C460090D5
:1003E00021F0004123F00045B8EB0200A94105D2FD
:1003F0004046214690461C460B46024623F00040EC
:10040000104347D0270DC7F30A00C3F30A510290E7
:10041000401A019040286BDAC3F3130040F4801BAC
:100420000098924620B10023D2EB030A63EB0B0B3A
:1004300001985946C0F14002504600F01EFA0646A7
:100440000D4650465946019A00F026FA10EB080076
:100450006141002487EA115284EAE7731A4340D0CD
:10046000009A62B3019A012A4FEA075215DC001B79
:1004700061EB02014FF0004202EA0752CDE900426F
:10048000001C41F5801132462B4600F05DFA03B0A6
:10049000BDE8F08F40462146F9E7001B61EB020101
:1004A000001C41F5801300185B412018A2F50017CD
:1004B00047EB030140EAD570B6196D4111E06D08B4
:1004C0004FEA360645EAC0754FEA0752001B61EB5A
:1004D0000201001C41F5801149084FEA3000001963
:1004E000514132462B4603B0BDE8F04F00F01DBA33
:1004F0000098012240000023D0EB020263EBE0737E
:10050000009821464FEAE074B8EB000061EB04016B
:10051000E9E783F000435BE781F0004158E72DE90C
:10052000FE4F81EA030404F0004421F000410094EE
:100530004FF0000B23F0004350EA01045ED052EA72
:1005400003045BD0C3F30A54C1F30A552C44A4F24C
:10055000F3340194A0FB0254C1F3130141F4801160
:10056000C3F3130343F4801301FB024400FB034E67
:10057000840A970A44EA815447EA8357A4FB076830
:1005800002958D0A05FB07854FEA932C04FB0C545A
:100590002705029D4FEA065847EA1637B5EB0805CE
:1005A0006EEB070C870E920E47EA811742EA831220
:1005B000A7FB0201B6EB0B0164EB00042B0D43EA31
:1005C0000C335E1844EB1C50DA465146E7FB02013F
:1005D000C5F313044FEA0B3343EA14534FEA0432D2
:1005E000019C43EA0603A4F10C040294009CCDE9AB
:1005F00000B400F0A9F903B0BDE8F08F0020014677
:10060000F9E72DE9F04D81EA030404F0004B21F0F5
:10061000004514464FF0000A23F0004150EA05025D
:1006200020D054EA01021DD0C5F30A570246C5F393
:100630001303C1F31300C1F30A5640F4801543F4C9
:100640008013A7EB0608101BD64608F2FD3873EBA3
:10065000050002D308F1010801E092185B41B8F1EE
:10066000000F03DA00200146BDE8F08D00204FF4B2
:100670008011064684460EE0171B73EB050705D371
:10068000121B63EB050306434CEA010C49084FEAD1
:10069000300092185B4150EA0107EDD152EA0300A5
:1006A00012D082EA040083EA0501084305D0101B3A
:1006B000AB4106D20122002306E000224FF00043A6
:1006C00002E06FF0010253101AEB06004CEB0851E8
:1006D00010EB0A0041EB0B01BDE8F04D00F025B92D
:1006E000C10F80EAE0700844CA079623002100F099
:1006F000EEB896230022114600F0E9B80EB5C10FFE
:1007000080EAE0700844CA07002140F233438DE8D4
:100710000E000A460B4600F017F903B000BD00F0CA
:10072000004220F00040C10DC0F3160040F400006C
:100730007F2901DA00207047962903DCC1F1960178
:10074000C84001E096398840002AF4D04042704702
:1007500070B5C1F30A5201F000450024C1F3130142
:1007600040F2FF3341F480119A4201DA002070BD5B
:1007700040F233439A42A2F2334203DC5242FFF783
:100780001FFD00E090402C43F1D0404270BD00F0CE
:10079000004230F000400AD0C10D01F56071C0F395
:1007A000160042EA0151C208400711437047002079
:1007B0000146704701F0004330B421F0004150EA97
:1007C000010206D00A0DA2F56072C1F31301002ADE
:1007D00002DC30BC00207047440F44EAC104C10071
:1007E000E01830BC00EBC25000F068B830B50B46E2
:1007F000014600202022012409E021FA02F59D4251
:1008000005D303FA02F5491B04FA02F52844151E24
:10081000A2F10102F1DC30BD2DE9F05F05460020B8
:1008200092469B4688460646814640241BE0284661
:10083000414647462246FFF7C3FC53465A46C01A74
:10084000914110D311461846224600F016F82D1A91
:1008500067EB01084F4622460120002100F00DF809
:1008600017EB00094E41201EA4F10104DFDC4846CD
:1008700031462A464346BDE8F09F202A04DB203A51
:1008800000FA02F1002070479140C2F1200320FAE3
:1008900003F3194390407047202A06DBCB17203A18
:1008A00041FA02F043EAE07306E041FA02F3D04075
:1008B000C2F1200291400843194670470029A8BFA1
:1008C0007047401C490008BF20F00100704710B479
:1008D000B0FA80FC00FA0CF050EA010404BF10BC2E
:1008E000704749B1CCF1200421FA04F411FA0CF15B
:1008F00018BF012121430843A3EB0C01CB1D4FEA94
:1009000000614FEA102042BF002010BC704700EB8E
:10091000C35010440029A4BF10BC7047401C4900BC
:1009200008BF20F0010010BC704710B5141E73F111
:10093000000408DA401C41F1000192185B411A439F
:1009400001D120F0010010BD2DE9F04D92469B46EB
:1009500011B1B1FA81F202E0B0FA80F22032904691
:10096000FFF78BFF04460F4640EA0A0041EA0B01FD
:1009700053465A46084313D0114653EA010019D092
:10098000C8F140025046FFF71BFC05460E46504694
:1009900059464246FFF771FF084305D0012004E0A5
:1009A00020463946BDE8F08D0020054346EAE07652
:1009B0002C4337430A986305E40AA0EB08000022A1
:1009C000FD0A44EA47540A3002D500200146E9E70F
:1009D000010510196941DDE9084500196941BDE8C3
:1009E000F04DA2E770B521F0004303430CD0C1F3F2
:1009F0000A550024D5EB040564EB0403D617AD1AA1
:100A0000B34102DB0020014670BD201841EB0251CA
:100A100070BDC1F30A52C1F3130140F2FF3341F438
:100A200080119A4202DA00200146704740F23343B7
:100A30009A42A2F2334202DC5242FFF7C1BBFFF7F7
:100A40001CBF000030B5041E71F1000404DB4FF040
:100A50000044404264EB0101141E73F1000405DB05
:100A60001C464FF00043524263EB04038B4208BF25
:100A7000824230BD30B5041E71F1000404DB4FF03A
:100A80000044404264EB0101141E73F1000405DBD5
:100A90001C464FF00043524263EB0403994208BFE7
:100AA000904230BD064C074D06E0E06840F001037F
:100AB00094E8070098471034AC42F6D3FFF71AFBCE
:100AC000D44F0008F44F0008F0B51E4885B0816986
:100AD00041F004018161816901F00401049181699F
:100AE00041F0080181618069002400F00800049051
:100AF0001120CDE901044FF44070134F03250090FD
:100B000069460395384600F0CFFB012216023146B4
:100B1000384600F0C6FC01225102384600F0C1FC04
:100B200001AA0120009682E83100084C694620465F
:100B300000F0BAFB00223146204600F0B2FC05B0BE
:100B4000F0BD000000100240000C01400008014010
:100B50003EB500220C4605468DF800208DF8042095
:100B60008DF808206946502000F0F0F8012801D0E7
:100B700012A00EE001A9592000F0E8F8012801D0E8
:100B800017A006E002A9512000F0E0F8012804D0E7
:100B90001CA001F0E3FE00203EBD9DF800009DF882
:100BA000041000F00C00400040EA511000F26D10FB
:100BB00028809DF80800207001203EBD5B45525200
:100BC0004F525D204661696C656420746F207265C8
:100BD0006164204144434741494E310D0A00000001
:100BE0005B4552524F525D204661696C65642074CA
:100BF0006F2072656164204144434741494E320D84
:100C00000A0000005B4552524F525D204661696CFC
:100C1000656420746F2072656164204144434F46CF
:100C2000465345540D0A000070B5FFF74DFF0122F1
:100C30002A4D14022146284600F033FC642000F0BF
:100C400021FB00222146284600F02BFC0A2000F060
:100C500019FB2349881CFFF77BFF012804D021A042
:100C600001F07CFE002070BD1821042000F0E6F9A0
:100C70004321052000F0E2F91821062000F0DEF9FA
:100C80007121072000F0DAF96021082000F0D6F980
:100C9000134841F29A0190F900208B1A4188C2F55D
:100CA000486293FBF1F092FBF1F1C0F30710C1F33E
:100CB00007140146092000F0C1F921460A2000F07E
:100CC000BDF919210B2000F0B9F9FF21002000F037
:100CD000B5F910A001F042FE012070BD00080140EE
:100CE000A40000205B4552524F525D204661696C62
:100CF000656420746F20726561642063616C696251
:100D0000726174696F6E20706172616D6574657275
:100D1000730D0A005B44454255475D20425137360A
:100D200039343020696E697469616C697A617469FB
:100D30006F6E20636F6D706C65746564207375638E
:100D40006365737366756C6C790D0A0038B50C4673
:100D500000210091014602236A46074801F0E5F8A8
:100D6000012804D005A001F0F9FD002038BD9DF850
:100D700000002070012038BDA80000205B455252C1
:100D80004F525D204661696C656420746F20726506
:100D900061642049324320646174610D0A000000DF
:100DA0002DE9F84F82460020184EDFF864808B460C
:100DB000ADF80000054604460C274FF47A79305D03
:100DC0006946401E07EB4000C0B200F075F80128EC
:100DD00006D0611C0FA001F0C1FD0020BDE8F88F16
:100DE000BDF80010B8F8022098F90000514391FBBB
:100DF000F9F108442AF81400641C2844E4B285B2CE
:100E0000092CDCD3ABF800500120E7E7144F0008B1
:100E1000A40000205B4552524F525D204661696C30
:100E2000656420746F207265616420766F6C7461F4
:100E3000676520666F722063656C6C2025640D0AFF
:100E40000000000038B504460020ADF800006946F7
:100E5000322000F031F8012804D00CA001F07EFD12
:100E6000002038BDBDF90000FFF748FC104A114BC7
:100E7000FFF755FBFFF79EFC6FF00101FFF79CFAAF
:100E8000FFF74DFC2080012038BD00005B45525229
:100E90004F525D204661696C656420746F207265F5
:100EA00061642063757272656E740D0A0000000043
:100EB000E17A14AE47E120407CB5044600200D469F
:100EC0008DF800008DF8040069462046FFF73EFFCC
:100ED000012801D00BA007E0641CE0B201A9FFF7D4
:100EE00035FF012804D010A001F038FD00207CBDA2
:100EF0009DF804009DF8001040EA012028800120A0
:100F00007CBD00005B4552524F525D204661696CCA
:100F1000656420746F207265616420686967682069
:100F2000627974650D0A00005B4552524F525D2094
:100F30004661696C656420746F2072656164206C21
:100F40006F7720627974650D0A000000F8B50546D8
:100F50000020ADF8000069462C20FFF7ADFF012806
:100F600004D023A001F0FAFC0020F8BDBDF8000079
:100F70004FF4BF714843FFF7BCFB2749FFF7DEF989
:100F8000044601462548FFF7A1F9254F0646394694
:100F90002046FFF7A1F93146FFF7D0F93946FFF7B0
:100FA000CDF9FFF7F4FB02F0C7F900221D4BFFF764
:100FB00028FB4FF060421C4BFFF70AFA02460B4633
:100FC00000201A49FFF71DFBFFF7F4FB1849FFF754
:100FD0007DF9FFF7DCFB0022164BFFF7F9F9002241
:100FE000154BFFF79CFAFFF7B3FB28800120F8BDF3
:100FF0005B4552524F525D204661696C65642074B6
:101000006F20726561642074656D706572617475BE
:1010100072650D0A0000000000007A4400404E4551
:1010200000401C460068AA40E1796B3F0000F03F99
:10103000339388430000E03F000024402DE9FC4149
:1010400000220092019210228DF8002000228DF8DB
:10105000010003258DF802106E4613460727F45C45
:10106000624000245FEA026C02D587EA420200E097
:101070005200641CE4B2D2B2082CF3D35B1C9BB2C6
:10108000AB42ECD38DF804108DF805200146022305
:1010900001AA054801F00CF8012803D003A001F0D3
:1010A0005DFC0020BDE8FC81A80000205B45525299
:1010B0004F525D204661696C656420746F207772C1
:1010C0006974652049324320646174610D0A00002F
:1010D0004FF4FA64204602F0EDFAFBE74FF4FA64AD
:1010E000204602F0E7FAFBE7FEE700000F48002188
:1010F00041824FF6FF7181825FF00001438A30F830
:101100001120934200D24282838A934200D9828284
:10111000491C0929F2DB418A828A891A0183418BA1
:101120000922B1FBF2F1C182704700002036002095
:101130004FF4FA64204602F0BDFAFBE7FFF774FDB6
:10114000224C4FF47A7904F11C0604F11A08B51CFC
:1011500049F2A837484602F0ADFA41461B48FFF76E
:101160001FFE012804D01A2219A120A001F0F6FBCD
:101170003046FFF767FE012804D01E2214A127A0E5
:1011800001F0ECFB2846FFF7E1FE012804D0232202
:101190000FA12CA001F0E2FB608BB84201D36420C8
:1011A0000CE0B0F5E14F08D36421A0F5E1404843DD
:1011B00042F2283190FBF1F000E0002084F820009A
:1011C000FFF794FF01F022F8C4E70000203600206A
:1011D0002E2E5C557365725C4150505C44617461A5
:1011E0004163715461736B2E630000005B45525282
:1011F0004F525D205B25733A25645D4661696C65DD
:101200006420746F20726561642063656C6C207665
:101210006F6C74616765730D0A0000005B45525284
:101220004F525D205B25733A25645D4661696C65AC
:101230006420746F20726561642063757272656EDC
:10124000740D0A005B4552524F525D205B25733A84
:1012500025645D4661696C656420746F2072656108
:10126000642074656D70657261747572650D0A0035
:10127000704772B6FEE74FF4FA64204602F01AFA9D
:10128000FBE7000070B5044600F010F90546601C4D
:1012900002D004480078044400F008F9401BA04242
:1012A000FAD370BD040000202DE9F84FDFF8B891A3
:1012B0000024A9F1040B23460F2709F1040AABF11E
:1012C000040EC9E00125A5402A40AA427DD1674EFF
:1012D000D1F804C0ACEB0608B44532D014DCBCF144
:1012E000030F3AD009DCBCF1000F2AD0BCF1010F8A
:1012F0001CD0BCF1020F31D11DE0BCF1110F17D091
:10130000BCF1120F2AD119E0B8F5881F19D006DCFC
:10131000B8F5803F15D0B8F5801F1FD111E0B8F5A2
:10132000001F0ED0B8F5041F18D10AE0CB6815E0F5
:10133000CB681B1D12E0CB6808330FE0CB680C3381
:101340000CE08B682BB1012B4FF0080303D04561F3
:1013500004E0042302E0056100E00023FF2A01D835
:10136000064601E000F104064FEA840501D9A5F123
:101370002005D6F8008007FA05FC28EA0C0803FAD5
:1013800005F548EA0508C6F800804D68ED0062D50D
:10139000374DAE6946F00106AE61AD6924F0030633
:1013A00005F001050095334D06EB050CDCF80850FF
:1013B000A607360F07FA06F825EA0805DFF8B88011
:1013C000404503D14FF0000817E044E0DFF8AC805F
:1013D000404502D14FF001080FE0DFF8A4804045FE
:1013E00002D14FF0020808E0DFF89880404502D1B2
:1013F0004FF0030801E04FF0040808FA06F848EA45
:101400000508CCF808804D68D9F80060ED024D461B
:1014100001D5164300E096432E604D68DAF800606F
:10142000AD02554601D5164300E096432E604D6847
:10143000DBF80060AD035D4601D5164300E096433E
:101440002E604D68DEF80060ED03754601D5164349
:1014500000E096432E60641C0D682A46E5407FF448
:1014600031AFBDE8F88F0000080401400000111002
:10147000001002400000014000080140000C014043
:1014800000100140001401408068084000D0012095
:101490007047C26821EA02030A4043EA024101613F
:1014A00070470AB1016170470904FBE70148806891
:1014B000704700000400002002488168027811444F
:1014C0008160704704000020074810B5016841F0B2
:1014D00010010160032000F0A7F80F2000F006F8CB
:1014E00000F050F8002010BD0020024030B5054645
:1014F0001F4887B0C16941F00401C161C06906A9F4
:1015000000F00400009001A800F036F90498B0B192
:1015100000F052F940001749174AB0FBF1F11748A3
:10152000491E0260416040F2E7320021C0E9032118
:101530008160816100F018FB040003D015E000F029
:101540003BF9E8E70D4800F03DFB04000DD11E20FB
:1015500000F03CF8102D07D2002229461E2000F092
:1015600043F80748056000E0012407B0204630BD7D
:101570000010024040420F0000080040040100201B
:10158000080000200F4808B5816941F00101816120
:10159000816901F001010091C16941F08051C1618F
:1015A000C069002200F0805000900F21901E00F0D2
:1015B0001BF80548416821F0E06141F0007141608D
:1015C00008BD00000010024000000140002809DBB7
:1015D00000F01F02012191404009800000F1E0204D
:1015E000C0F8001170470000F0B40E4B1B680C46A9
:1015F000C3F30223C3F10705042D00D90425191DE7
:10160000072901D2002300E0DB1E012606FA05F1BE
:10161000491E214099409E40761E16403143F0BC41
:1016200001F0ACB90CED00E0064900F007020868D3
:101630004FF6FF03184040EA0220034A10430860B7
:10164000704700000CED00E00000FA052DE9F047BE
:101650000F46050061D0434E306800F00700B842E5
:1016600009D2306820F0070038433060306800F05D
:101670000700B84251D128683B4C810712D540077A
:1016800003D5606840F4E06060602878000703D507
:10169000606840F4605060606068A96820F0F00005
:1016A000084360602878C00728D06868012810D0F7
:1016B0002168022810D0890700292EDA616821F0FC
:1016C000030101436160FFF7F1FE804641F2883972
:1016D0000DE021688903EFE78901EDE7FFF7E6FEFA
:1016E000A0EB0801494502D90320BDE8F0876068F6
:1016F000696800F00C00B0EB810FEFD1306800F0AA
:101700000700B8420BD9306820F00700384330603A
:10171000306800F00700B84201D00120E5E72878E2
:10172000400705D56068E96820F4E0600843606020
:101730002878000706D56068296920F4605040EADF
:10174000C100606000F058F86168084AC1F30311F5
:10175000515CC8400649086006480068FFF7C6FEAD
:101760000020C2E70020024000100240224E000884
:1017700010000020080000200F2202600C4A53686D
:1017800003F003034360536803F0F003836053687E
:1017900003F4E063C36052684FF4E06303EAD202EB
:1017A00002610448006800F007000860704700000C
:1017B00000100240002002400448054900684968C2
:1017C000044AC1F30221515CC84070471000002058
:1017D00000100240324E000804480549006849687C
:1017E000044AC1F3C221515CC84070471000002078
:1017F00000100240324E00080E4A51680E4801F0B7
:101800000C03042B11D0082B0FD10C48C1F38343D8
:10181000C903C05C0AD55168084AC1F34041921E11
:10182000515C054A5043B0FBF1F07047044948430E
:10183000704700000010024000127A00124E0008AB
:1018400000093D002DE9F84F040070D02078C04D0C
:10185000C00749D06868C0F38100012807D06868D4
:10186000C0F38100022809D16868C00306D5286842
:10187000800339D560680028E7D035E06068B0F5AE
:10188000803F0BD010B1B0F5A02F11D0286820F404
:1018900080302860286820F4802002E0286840F426
:1018A00080302860606890B1FFF700FE06460AE0CD
:1018B000286840F480202860F0E700BFFFF7F6FDBD
:1018C000801B642873D828688003F7D50CE0FFF7E5
:1018D000EDFD064605E000BFFFF7E8FD801B64282C
:1018E000F0D828688003F7D420789A4E80074FF00C
:1018F00001094FF0000839D5686810F00C0F07D0C7
:101900006868C0F38100022809D16868C00306D462
:101910002868800714D52069012808D110E02069C3
:10192000B0B1C6F80090FFF7C1FD074605E00AE137
:10193000FFF7BCFDC01B0228C4D828688007F7D574
:101940002868616920F0F80040EAC10028600DE0D5
:10195000C6F80080FFF7AAFD074604E0FFF7A6FDE2
:10196000C01B022823D828688007F7D420780007F6
:101970002CD57948A169D9B1C0F80090FFF796FD40
:10198000074604E0FFF792FDC01B02280FD8686AE3
:101990008007F7D571484FF4FA510068B0FBF1F0B9
:1019A000009000BF0098411E0091FAD20EE080E046
:1019B000C0F80080FFF77AFD074604E0FFF776FDE8
:1019C000C01B022875D8686A8007F7D420784007C2
:1019D00060D5E8690027C00008D4E86940F080506D
:1019E000E861E869012700F0805000905C480168D8
:1019F000C90513D40168834641F480710160FFF783
:101A000055FD824606E000BFFFF750FDA0EB0A003F
:101A100064284ED8DBF80000C005F5D5E068012841
:101A20000AD008B1052813D0286A20F001002862E6
:101A3000286A20F0040002E0286A40F001002862D1
:101A4000E06841F2883B98B1FFF730FD82460BE039
:101A5000286A40F004002862EEE700BFFFF726FD89
:101A6000A0EB0A0159455AD8286A8007F6D50CE040
:101A7000FFF71CFD824605E0FFF718FDA0EB0A0109
:101A800059454CD8286A8007F6D41FB1E86920F080
:101A90008050E861E06988B36968C1F38101022977
:101AA00044D00228C6F8608004D0FFF7FFFC04464B
:101AB00038E034E0FFF7FAFC074604E0FFF7F6FCF5
:101AC000C01B02282BD828688001F7D4206AB0F503
:101AD000803F05D16868A16820F400300843686041
:101AE000D4E908010843696821F474110843686067
:101AF000C6F86090FFF7DAFC044606E025E000BF78
:101B0000FFF7D4FC001B022809D828688001F7D50C
:101B10001BE000BFFFF7CAFC001B022802D903200C
:101B2000BDE8F88F28688001F4D40EE00128F7D0D2
:101B30006868226A00F48031914204D1616A00F43D
:101B40007010884201D00120EAE70020E8E7000099
:101B50000010024000004242800442421000002077
:101B6000007000407047704710B5040003D094F82F
:101B70003D0010B107E0012010BD002084F83C00BA
:101B8000204600F01EF8022084F83D00211D206848
:101B900000F0D8FD012084F8460084F83E0084F867
:101BA0003F0084F8400084F8410084F8420084F843
:101BB000430084F8440084F8450084F83D00002088
:101BC00010BD704790F83D10012901D001207047E9
:101BD000022180F83D100168CA6842F00102CA6023
:101BE00000680B49884208D0B0F1804F05D0094900
:101BF000884202D00849884204D1816801F0070177
:101C0000062903D0016841F00101016000207047FE
:101C1000002C01400004004000080040704770B5EF
:101C20000446006801694FF00005C943890715D4CF
:101C3000C168C943890711D4E91E016101202077D9
:101C4000206880698007204602D0FFF7E7FF04E0A4
:101C500000F098F8204600F096F825772068016992
:101C6000C943490717D4C168C943490713D46FF062
:101C700004010161022020772068806910F4407F10
:101C8000204602D0FFF7CAFF04E000F07BF82046B0
:101C900000F079F8257720680169C943090716D44F
:101CA000C168C943090712D46FF00801016104201B
:101CB00020772068C0698007204602D0FFF7AEFF7A
:101CC00004E000F05FF8204600F05DF8257720681A
:101CD0000169C943C90617D4C168C943C90613D4E9
:101CE0006FF010010161082020772068C06910F4AE
:101CF000407F204602D0FFF791FF04E000F042F859
:101D0000204600F040F8257720680169C943C907DB
:101D100008D1C168C943C90704D1891E01612046A1
:101D200000F032F820680169C943090609D4C16886
:101D3000C943090605D46FF0800101612046FFF711
:101D400011FF20680169C943490609D4C168C94324
:101D5000490605D46FF040010161204600F01EF8ED
:101D600020680169C94389060BD4C168C943890643
:101D700007D46FF0200101612046BDE87040FFF7F5
:101D8000F2BE70BD7047704700680349884201D1B8
:101D9000FFF792BB7047000000080040704770B525
:101DA000040004D094F84100002510B106E00120A1
:101DB00070BD84F84050204600F024F8242084F8B8
:101DC00041002068C16821F40051C160204600F044
:101DD0002BFD2068016921F490410161206841696F
:101DE00021F02A0141612068C16841F40051C160BD
:101DF0006564202084F8410084F842006563002077
:101E000070BD000030B585B00024009401940294A8
:101E1000039400681449884224D11448816941F42C
:101E200080418161816901F480410491816941F0BF
:101E30000401816180690E4D00F0040004904FF4AC
:101E4000007000900220019003200390694628460C
:101E5000FFF72AFA2815CDE90004694628460294BE
:101E6000FFF722FA05B030BD0038014000100240F3
:101E7000000801402DE9F843044690F841001F4650
:101E800016460D46202802D00220BDE8F8837DB119
:101E900076B100206064212084F84100FFF706FB42
:101EA000A6848046E684A068B0F5805F02D003E097
:101EB0000120EAE7206910B12E4600250EE0002639
:101EC0000CE08021204600F00BFDA0B9AEB116F861
:101ED000010B21684860E08C401EE084E08C4346A2
:101EE0004FF0000200970028EBD14FF04001204650
:101EF00000F0F6FC30B10320C7E735F8020BC0F361
:101F00000800E6E7202084F841000020BDE7FEE756
:101F100008B53220ADF8000000E000BFBDF80000B9
:101F2000411EADF80010F8D208BD2DE9F0475FEA78
:101F3000030891460C46054610D0B9F1000F0DD0AC
:101F4000284600F093F8287A4006010E284600F053
:101F500075F8284600F05FF8D0B902E00020BDE82F
:101F6000F0872146284600F069F8284600F053F82B
:101F700070B9284600F07AF8287A012101EB400078
:101F8000C1B2284600F05AF8284600F044F818B1CB
:101F9000284600F07EF8E1E700242BE000263746D3
:101FA0000121284600F0BBF87006060E284600F016
:101FB00028F808B146F001060021284600F0AFF8E5
:101FC0007F1CFFB2082FEBD3A8F1010009F80460D1
:101FD000A04201D1012100E00021284600F0AAF82A
:101FE0000121284600F09BF80021284600F097F8D0
:101FF000641CA4B24445D1D3284600F04AF801201D
:10200000ADE710B5C1880068FFF73EFA0446FFF758
:102010007FFF204610BD70B50546012100F08AF80B
:102020000121284600F07BF82846FFF7EAFF044626
:102030000021284600F073F8204670BD70B50D46AB
:102040000646002405F08001304600F073F868066B
:10205000050E0121304600F062F80021304600F004
:102060005EF8641CE4B2082CECD370BD10B50446D5
:10207000012100F05FF80121204600F050F8002116
:10208000204600F057F82046BDE81040002100F03F
:1020900046B810B50446002100F04CF80121204656
:1020A00000F03DF82046BDE81040012100F042B8A4
:1020B0002DE9F0411D0016460C4607460DD066B1CD
:1020C000FFF7D4FF387A4006010E3846FFF7B6FF17
:1020D0003846FFF7A0FFA8B902E00020BDE8F08174
:1020E00021463846FFF7AAFF3846FFF794FF48B964
:1020F00000240DE0315D3846FFF7A0FF3846FFF7BA
:102100008AFF18B13846FFF7C4FFE6E7641CA4B2A3
:10211000AC42EFD33846FFF7BCFF0120DEE710B535
:1021200083880A4600681946FFF7BBF9BDE81040EE
:10213000FFF7EEBE10B5C3880A4600681946FFF7E0
:10214000B0F9BDE81040FFF7E3BE000010B500F0A5
:102150002FFB044A0021044801F002FB03490860F8
:1021600010BD0000EC4D000885260008000000208E
:1021700070B586B00024144800940194029403942E
:10218000816941F020018161816901F020010491A0
:10219000816941F0040181618069012200F004003D
:1021A0000A4ED503049029463046FFF77AF90120FC
:1021B0000095CDE901040220039069463046FFF7FF
:1021C00073F806B070BD0000001002400008014026
:1021D0000C4810B50A4901604FF4E131416000211B
:1021E00081600C22C160C0E904128161C161FFF706
:1021F000D6FD002803D0BDE81040FFF73AB810BD67
:1022000000380140BC000020FEE7FEE72DE9F04168
:102210005D4DB5F91C00FEF763FA5C49FEF78EF8D8
:102220000746B5F91E00FEF75BFA5949FEF786F836
:10223000064658A000F092FB95F8201064A000F02C
:102240008DFB688A4FF47A74B0FBF4F104FB110241
:10225000B0FBF4F166A000F081FBA88AB0FBF4F1BA
:1022600004FB1102B0FBF4F16AA000F077FB288BAD
:10227000B0FBF4F104FB1102B0FBF4F16EA000F02E
:102280006DFBE88AB0FBF4F104FB1102B0FBF4F142
:1022900076A000F063FB688BB0FBF4F104FB110245
:1022A000B0FBF4F17BA000F059FB3846FEF76FFA63
:1022B00002460B4680A000F051FB3046FEF767FA5D
:1022C00002460B4684A000F049FB2888B0FBF4F1DD
:1022D00004FB1102B0FBF4F189A000F03FFB688819
:1022E000B0FBF4F104FB1102B0FBF4F18DA000F09F
:1022F00035FBA888B0FBF4F104FB1102B0FBF4F14C
:1023000091A000F02BFBE888B0FBF4F104FB110274
:10231000B0FBF4F195A000F021FB2889B0FBF4F1AB
:1023200004FB1102B0FBF4F199A000F017FB6889DF
:10233000B0FBF4F104FB1102B0FBF4F19DA000F03E
:102340000DFBA889B0FBF4F104FB1102B0FBF4F122
:10235000A1A000F003FBE889B0FBF4F104FB11023B
:10236000B0FBF4F1A5A000F0F9FA288AB0FBF4F173
:1023700004FB1102B0FBF4F1A9A000F0EFFABDE8F4
:10238000F041B0A000F0EABA2036002000007A4404
:10239000000020415B494E464F5D202F2A2A2A2A01
:1023A0002A2A2A2A2A2A2A2A2A2A2A2A2A2A2A2097
:1023B000424D532044617461202A2A2A2A2A2A2A5B
:1023C0002A2A2A2A2A2A2A2A2A2A2A2A2F0D0A00CF
:1023D0005B494E464F5D20426174746572792053AB
:1023E0004F433A20256425250D0A0D0A0000000000
:1023F0005B494E464F5D2043656C6C204D617820F3
:10240000566F6C746167653A2025642E25303364FD
:10241000560D0A005B494E464F5D2043656C6C20AB
:102420004D696E20566F6C746167653A2025642E85
:1024300025303364560D0A005B494E464F5D2043FC
:10244000656C6C204D617820566F6C7461676520F7
:10245000446966666572656E63653A20253031644D
:102460002E25303364560D0A000000005B494E46AD
:102470004F5D2043656C6C2041766720566F6C740D
:102480006167653A2025642E25303364560D0A0DA8
:102490000A0000005B494E464F5D2042617474653E
:1024A000727920566F6C746167653A2025642E2519
:1024B000303364560D0A00005B494E464F5D2042A2
:1024C0006174746572792043757272656E743A2016
:1024D000252E3366410D0A005B494E464F5D204272
:1024E0006174746572792054656D7065726174757C
:1024F00072653A20252E31660D0A0D0A0000000093
:102500005B494E464F5D2043656C6C3120566F6CC5
:10251000746167653A2025642E25303364560D0AB0
:10252000000000005B494E464F5D2043656C6C32F5
:1025300020566F6C746167653A2025642E25303310
:1025400064560D0A000000005B494E464F5D204373
:10255000656C6C3320566F6C746167653A20256436
:102560002E25303364560D0A000000005B494E46AC
:102570004F5D2043656C6C3420566F6C74616765E9
:102580003A2025642E25303364560D0A00000000E1
:102590005B494E464F5D2043656C6C3520566F6C31
:1025A000746167653A2025642E25303364560D0A20
:1025B000000000005B494E464F5D2043656C6C3661
:1025C00020566F6C746167653A2025642E25303380
:1025D00064560D0A000000005B494E464F5D2043E3
:1025E000656C6C3720566F6C746167653A202564A2
:1025F0002E25303364560D0A000000005B494E461C
:102600004F5D2043656C6C3820566F6C7461676554
:102610003A2025642E25303364560D0A0000000050
:102620005B494E464F5D2043656C6C3920566F6C9C
:10263000746167653A2025642E25303364560D0A8F
:10264000000000005B494E464F5D202F2A2A2A2AAF
:102650002A2A2A2A2A2A2A2A2A2A2A2A2A2A2A2ADA
:102660002A2A2A2A2A2A2A2A2A2A2A2A2A2A2A2ACA
:102670002A2A2A2A2A2A2A2A2A2A2A2F0D0A0D0A2F
:1026800000000000064D4FF400444FF4FA76214656
:102690002846FEF7FEFE304601F00CF8F7E7000092
:1026A00000080140642001F005F8FBE710B5502058
:1026B00080F31188BFF34F8FBFF36F8F02F0F4F9EF
:1026C00018B104494FF080500860002080F3118851
:1026D00010BD000004ED00E030B58FB02821684641
:1026E000FDF797FD14210AA8FDF793FD01210804C9
:1026F000CDE900100024029402250491CDE9075091
:102700004FF4E01009906846FFF79CF808B172B6E4
:10271000FEE70F20CDE90A054FF48060CDE90C40BB
:1027200002210AA80E94FEF791FF002801D072B68C
:10273000FEE70FB030BD70470148FFF770BA0000E8
:1027400004010020F0B50268164B174C174D4FF0EE
:102750008047984205D0B84203D0A04201D0A84299
:1027600003D122F070064A683243984205D0B8423D
:1027700003D0A04201D0A84203D122F44074CA6819
:1027800022434C6922F08002224302608A68C262BE
:102790000A688262984201D109690163012141619D
:1027A000F0BD0000002C0140000400400008004083
:1027B00010B5154A0021154800F0D2FF144C124AFA
:1027C000002120602432134800F0CAFF0E4A6060E6
:1027D00048320021104800F0C3FF0B4AA0606C3261
:1027E00000210E4800F0BCFF074AE0609032002153
:1027F0000B4800F0B5FF044A2061B43200210948BB
:1028000000F0AEFF606110BD3C4E0008771200087A
:102810008C0000203D110008A5260008DD100008EE
:1028200031110008D110000870B504460068016934
:10283000E26821F44051114301612169A068084315
:10284000616908432168CA6841F20C639A430243F4
:10285000CA6020684169A26921F440711143416155
:102860001E492068884202D1FEF7B6FF01E0FEF75C
:10287000A3FF00EBC00101EB00126068642180003F
:10288000B2FBF0F3B3FBF1F36FF018067343B2FB46
:10289000F0F5B2FBF0F605EB8305322303EB0515EB
:1028A000B5FBF1F5B6FBF1F605F0F00505EB061505
:1028B000B2FBF0F6B2FBF0F0B0FBF1F06FF01802F3
:1028C000504306EB800003EB0010B0FBF1F02168F1
:1028D00000F00F002844886070BD000000380140FF
:1028E0002DE9F041984617460E460446069D27E01E
:1028F000681C25D02DB1FEF7D9FDA0EB0800A84239
:102900001ED920680C3050E8001F21F4D07140E837
:102910000012002AF5D12068143050E8001F21F081
:10292000010140E80012002AF5D1202084F841007E
:1029300084F84200002084F840000320BDE8F081C4
:102940002068006836EA000004D00020B842CFD0EA
:102950000020F3E70120F9E7FEE700000FB4054B84
:1029600010B503A9044A029800F056F910BC5DF8AE
:1029700014FB000021330008B40000200907090EF1
:10298000002804DB00F1E02080F80014704700F01C
:102990000F0000F1E02080F8141D70472DE9F04190
:1029A0004F1E00EBC7010446D1E9000115461E4643
:1029B00037F006020DD02A463346FDF7B0FD7F1EE4
:1029C00004EBC703D3E90023FDF702FD37F006024D
:1029D000F1D1022F25D0042F13D0062F18BFBDE848
:1029E000F0812A463346FDF79AFDD4E90A23FDF724
:1029F000EFFC2A463346FDF792FDD4E90823FDF7A4
:102A0000E7FC2A463346FDF78AFDD4E90623FDF7A5
:102A1000DFFC2A463346FDF782FDD4E90423FDF7A7
:102A2000D7FC2A463346FDF77AFDD4E90223FDF7A9
:102A3000CFFC2A463346FDF772FDD4E90023BDE8FA
:102A4000F041FDF7C5BC00000022134610460149C5
:102A5000FDF7D7BD0000F03F0122FDF7C3BF002204
:102A6000134610461146FDF7CCBD02E008C8121F00
:102A700008C1002AFAD170477047002001E001C167
:102A8000121F002AFBD170470149086070470000FF
:102A9000B80000202DE9FF5F82B00021DDE904309D
:102AA000020DDDF840B0034318D044F61050A2F2F6
:102AB000FF3242431514119801281FD0A5EB0B00DB
:102AC000401C5FEA000A4FF000064E4FDFF83891D5
:102AD000B046504615D5CAF1000413E01198012400
:102AE0004AA3012801D16FEA0B010298119AC0E9AB
:102AF0000031C0E9024206B0BDE8F09FCBF1000012
:102B0000DFE704460021404A491842EB0450CDE972
:102B1000001012E0E00707D032463B4640464946E7
:102B2000FDF7FDFC8046894632463B461046194675
:102B3000FDF7F5FC06460F466410002CEAD1DDE9EE
:102B40000401DDE90023BAF1000F06DAFDF7E7FC26
:102B500042464B46FDF7E3FC05E0FDF752FD4246D9
:102B60004B46FDF74EFD04460E460022284BFDF76E
:102B700081FF03D84FF0FF30014607E00022254BCC
:102B800020463146FDF724FCFDF743FF102409E001
:102B9000002C0ADB0A220023FDF73EFE039B3032A5
:102BA0001A55641E50EA0102F2D1641C039AC4F162
:102BB00011031444119A012A03D0012208430DD1B4
:102BC0000AE0084304D000204FF0110B119072E787
:102BD000A3EB0B056D1E0DE05B4504DD4FF000021D
:102BE00005F1010504E003DA4FF00002A5F101054B
:102BF000002AECD002981199C0E90231C0E90045E1
:102C000079E70000000014400000F03F30000000B1
:102C10000000F0430000E03F2DE9FF4F95B09A46D9
:102C2000884606460025EEE1252877D10024274670
:102C3000F94A0121039400E0044316F8013F203BC8
:102C400001FA03F01042F7D130782A2811D06FF042
:102C50002F033078A0F13002092A16D8039A44F0E5
:102C6000020402EB820203EB42021044761C039042
:102C7000EFE758F8042B0392002A03DA504244F499
:102C80000054039044F00204761C30782E2816D1AC
:102C900016F8010F44F004042A280DD06FF02F021B
:102CA0003078A0F13003092B09D807EB870302EB3A
:102CB0004303C718761CF3E758F8047B761C30787A
:102CC0006C280FD006DC4C2817D068280DD06A2855
:102CD00014D104E0742810D07A280FD10DE044F408
:102CE00000140AE044F4801401E044F440147278C3
:102CF000824202D104F58014761C761C3078662856
:102D00000BD013DC582877D009DC002875D0452873
:102D1000F6D04628F4D047281AD193E118E063286A
:102D200035D0642879D0652812D18BE1702873D012
:102D300008DC6728F1D069286FD06E280DD06F2885
:102D400006D1ACE073282CD0752874D0782853D0E5
:102D50005246179990476D1C54E1C4F30250022863
:102D600009D003280DD0D8F8001004280DD00D602C
:102D700008F1040846E1D8F80010EA17C1E900524A
:102D8000F6E7D8F800100D80F2E70D70F0E718F8BC
:102D9000041B8DF8001000208DF80100EB46012087
:102DA00003E058F804BB4FF0FF3061074FF000011B
:102DB00002D40DE009F101018946B9420FDA8145DB
:102DC000F8DB1BF809100029F4D108E009F1010132
:102DD00089468142FADB1BF809100029F6D10398D5
:102DE0005346A0EB090721463846179A00F080FAAF
:102DF000284400EB090507E044E008E10DE01BF87A
:102E0000010B524617999047B9F10109F7D2534681
:102E100021463846179AF2E039E00A21C4F30252FB
:102E20004FF0000B0091022A06D058F8040BC1178E
:102E3000032A09D00AE023E008F1070020F0070286
:102E4000F2E80201904605E000B2C117042A01D160
:102E500040B2C117002906DA0A460021404261EB60
:102E600002012D2202E0220504D52B228DF8042038
:102E7000012203E0E20701D02022F7E7914657E064
:102E80000A2100E010214FF0000B00910BE010210F
:102E90004FF0000B44F004040827009103E00820E1
:102EA0004FF0000B0090C4F30252022A05D058F8EC
:102EB000040B0021032A08D008E008F1070020F0E5
:102EC0000702F2E80201904603E080B2042A00D132
:102ED000C0B24FF0000922072AD53278702A07D0F5
:102EE000DDF800C08CF0100C5CEA0B0C05D00EE095
:102EF00040228DF80420012208E050EA010306D0A8
:102F000030238DF804308DF8052002229146009B75
:102F100083F0080353EA0B030AD150EA010201D1FE
:102F2000620705D530228DF804204FF001097F1E7D
:102F30003278582A04D039A20C920CAA02920BE0E3
:102F40003BA2F9E75B46009AFDF766FC0C9B9B5C95
:102F5000029A521E0292137050EA0102F2D10298B4
:102F600004A9081A00F1200B600702D524F480346C
:102F700000E001275F4502DDA7EB0B0000E0002029
:102F800000EB0B01009003984944401A0390E003C2
:102F900006D453462146179A039800F0A9F9054430
:102FA000002706E001A85246C05D179990476D1CA6
:102FB0007F1C4F45F6DBE0030CD553462146179A9C
:102FC000039800F095F9054404E030205246179923
:102FD00090476D1C0099481E00900029F5DC08E020
:102FE0000298029952460078491C0291179990471D
:102FF0006D1CBBF10001ABF1010BF1DC5BE100F0FA
:1030000065F90544761C307800287FF40DAE19B0C0
:103010002846BDE8F08F0000092801003031323326
:103020003435363738396162636465660000000004
:1030300030313233343536373839414243444546EE
:1030400000000000600700D4062708F1070020F008
:103050000700F0E80223804603F0004C5FEA0C0012
:1030600001D097A009E0200501D596A005E0E00772
:1030700001D095A001E0AFF24C001390307823F01E
:10308000004365280CD006DC452809D046281DD011
:1030900047287FD13BE0662818D067287AD136E0F0
:1030A0000021112F01DB112000E0781CCDE9000187
:1030B00004A90CA8FFF7EEFCDDE90D010C9A4FF016
:1030C000000B07F10109109200914EE04FF0004013
:1030D0000097CDE9011004A90CA8FFF7DBFCDDE99E
:1030E0000D020C9B0F994FF0000B9146109300922C
:1030F00011B9791C00EB0109B7EB090003D4C0F149
:10310000FF3B07F10109A9EB0700019042E0012F05
:1031100000DA01270021112F01DD112000E03846DF
:10312000CDE9000104A90CA8FFF7B4FCDDE90D010D
:103130000C9A00914FF0000BB946109221070FD462
:10314000009A4A4503DA914601E0A9F10109B9F173
:10315000010F05DD109AA9F10101515C3029F4D06D
:10316000B84202DA10F1040F03DA0121CDE90110AF
:1031700010E0002803DC8344A9EB000102E0411CBD
:10318000494500DD8946A0EB0B00401C01904FF043
:1031900000400290200705D40198484502DB4FF01B
:1031A000FF30019000208DF84B0002980DF14B0785
:1031B000B0F1004F25D002200C902B200D900298EA
:1031C00000280CDA404202902D200D9007E00A21E1
:1031D0000298FDF70BFB3031029007F8011D0C99A6
:1031E000481E0C900029F2DC02980028EFD1791ECD
:1031F0000D980870307800F0200040F0450007F886
:10320000020D11A8C01BC01D02901398007800B1D8
:10321000012000EB0901019801EBE07102980144E3
:103220000398401A401E0390E00306D453462146FB
:10323000179A039800F05CF805441398007818B1C9
:103240005246179990476D1CE00323D553462146FB
:10325000179A039800F04CF805441BE0BBF1000FEF
:1032600007DB0098584504DD1098179910F80B00FB
:1032700001E0179930205246904701980BF1010B5D
:10328000401E05F10105019004D12E2052461799E8
:1032900090476D1CB9F10001A9F10109DEDC05E0E0
:1032A00017F8010B5246179990476D1C0299481E5A
:1032B00002900029F4DC53462146179A03989EE6B3
:1032C0002D0000002B000000200000002DE9F0413F
:1032D000044600251E461746880404D405E03946F6
:1032E0002020B0476D1C641EF9D52846BDE8F0814A
:1032F0002DE9F041044600251E469046C80301D53D
:10330000302700E02027880404D505E041463846F0
:10331000B0476D1C641EF9D52846BDE8F081000059
:1033200013B54FF0FF33012269460248FEF7A2FDB4
:1033300000981CBDBC0000202DE9F04DC84A0024B7
:1033400090B0914205DA21F00043934201D805D1B3
:1033500020B110B0BDE8F04DFFF77EBBB1F5801F86
:103360001BDA53EA000209D0002911DA0120FFF725
:103370008BFB10B0BDE8F04DFFF771BB0220FFF7EB
:1033800083FBFFF761FB10B081F00041BDE8F08DD9
:103390006FF035043622FDF725FB04EB2152C1F313
:1033A0001308B049A2F2FF33414401F4801282F0C5
:1033B0007F6103EB225281F04051009241EA080103
:1033C0000022A94BFDF7A5F8044608F10200A74E1C
:1033D000C0F313000D467E44032867D2D6E90023CC
:1033E0002046FDF72FFB1ED10098002802BFD6E92A
:1033F000000110B0BDE8F08DFDF780F907460C46DE
:103400009B4A9C4BFDF78BF806460D469A4A9B4B10
:1034100038462146FDF783F810B032462B46BDE80A
:10342000F04DFCF7D5BF4FF05532954B204629465D
:10343000FDF775F80022934BFDF76EF806460F4630
:1034400022462B4610461946FDF769F832463B46A0
:10345000FDF765F8064600980F46F0B1FDF74EF906
:1034600080468A46824A834BFDF759F832463B46EE
:10347000FDF752F822462B46FDF74BF805460C4661
:103480007D4A7E4B40465146FDF749F810B02A462A
:103490002346BDE8F04DFDF73CB80B4610B0324670
:1034A00020462946BDE8F04DFDF733B800224FF025
:1034B00080432046FCF78CFF02460B4620462946F7
:1034C000FDF79FF806460F460098FDF717F9CDE97E
:1034D000040132463B4610463946FDF720F80C9071
:1034E00069480C9A4044019009910B461046FDF73B
:1034F00016F88246024665488B46C8F151080B46CD
:1035000008F5D72803217844FFF748FA52465B466E
:10351000FDF705F80A905E480D9152465B4604217E
:103520007844FFF73BFA099B0C9AFCF7F8FF8446B6
:1035300001980D9B40EA080860460A9AFCF748FF8C
:1035400083460891B8F1000F4EDD4FF0FF32204660
:103550002946FDF747FA22462B46FCF7E0FF804656
:1035600000988A4660B3DDE90401414A414BFCF70B
:10357000D6FF099100905A4640465146089BFCF7F9
:1035800027FF32463B46FCF7CAFF099B009AFCF72F
:103590001FFF42465346FCF7BFFF22462B46FCF76F
:1035A000B8FF04460D46DDE90401334A334BFCF70E
:1035B000B6FF10B022462B46BDE8F04DFCF7A9BF80
:1035C0005A464046089BFCF703FF32463B46FCF751
:1035D000A6FF42465346FCF79FFF10B022462B46FB
:1035E000BDE8F04DFCF798BF009840B3DDE9040159
:1035F0001F4A204BFCF793FF80468A465A462046D6
:103600002946089BFCF785FF32463B46FCF787FFBF
:1036100042465346FCF77DFF22462B46FCF779FFD6
:1036200004460D46DDE90401134A144BFCF777FF0D
:1036300010B022462B46BDE8F04DFCF76ABF0B46A2
:103640005A4620462946FCF764FF32463B46FCF7C3
:1036500066FF10B022462B46BDE8F04DFCF75CBF7C
:103660000000F07F645F09000000F03F7E1B000057
:10367000763C7935EF39EA3D0000E0FE422EE63F28
:103680005555D53F0000E03F86EBF9FF161A0000C4
:10369000141A0000FDF718FFFFF71EF8FEF768FD8B
:1036A000FEF796FD00F020F8FEF750FD00F038F828
:1036B000FEE7000010B5EFF3058149B9EFF3108183
:1036C00031B908490968022905D1EFF3118111B117
:1036D0006FF0050403E0002408B100F0E3FD20468C
:1036E00010BD000064000020EFF3058058B9EFF32F
:1036F000108040B909490868022801D030B109E0BA
:10370000EFF3118030B16FF00500704701200860C1
:10371000002070474FF0FF30704700006400002029
:1037200010B5EFF3058060B9EFF3108048B90B498D
:103730000868022802D0012806D00BE0EFF31180C0
:1037400040B16FF0050010BD0220086000F012FECD
:10375000002010BD4FF0FF3010BD000064000020BD
:10376000F0B585B04FEA01034FF00004EFF3058197
:103770000394A1BBEFF3108189BB21490968022999
:1037800002D1EFF3118151BB48B3802618218DF887
:10379000104004AD42B3176807B13D4697691FB1A9
:1037A00039467F1E382F02D21779FF0702D000203A
:1037B00005B0F0BD576907B1BE08D2F808C0BCF12A
:1037C000000F0DD0D4685C2C18D312693AB137B110
:1037D0008DE806103246294601F027F903900DE0E6
:1037E000D7685FB912694AB903AACDE90012B2B22B
:1037F000294601F0EDF8012800D003940398D7E79B
:10380000640000202DE9F041134C0F46054666691F
:103810002068001D00F016FC681C07D137B1216834
:10382000BDE8F0410D48091D00F05CBC206835443E
:10383000B5424560216805D2A068BDE8F041091D88
:1038400000F038BC6068091D00F034FC206B854234
:1038500000D22563BDE8F081140000203C06002062
:103860002DE9F041054600F049FC2D4C2069401C33
:10387000206120682B4F10B1E06930B32BE0256048
:103880002069012827D1002606EB860007EB80007F
:1038900000F002FC761C382EF6D3234800F0FCFB27
:1038A0002148143000F0F8FB1F48283000F0F4FBEA
:1038B0001D483C3000F0F0FB1B48503000F0ECFBA2
:1038C000194860601430A06005E02068E96AC06AA9
:1038D000884200D82560E06A401CE0626864E86ABB
:1038E000A169884200D9A06100EB800007EB80004D
:1038F000291D00F0F7FB00F021FCE06900280CD046
:103900002068E96AC06A884207D208494FF08050AF
:103910000860BFF34F8FBFF36F8FBDE8F0810000E9
:10392000140000208C010020EC05002004ED00E0D4
:1039300038B500F0E3FB104CA068C8B90F4800F0A0
:10394000ABFB0E48143000F0A7FB0C48206014308D
:1039500060600A4B00202833009003F150021021D0
:103960000A2000F0D9FDA06010B105A100F064FCB0
:10397000BDE8384000F0E2BB5000002050060020B7
:10398000546D72510000000030B4026C0B46002AE6
:103990000BD0C1681144C1604468A14201D30168E1
:1039A000C16030BC1846FCF71BBC30BC70472DE929
:1039B000F041856B174604460026026C82B1C7B100
:1039C000E068FCF70DFCE168206C091AE1602268F0
:1039D000914202D26168081AE060022F16D017E007
:1039E0002068A8B9606801F0C3F80646002060604E
:1039F0000EE0A068FCF7F4FB216CA0680844A0600E
:103A00006168884204D32068A06001E005B16D1EA2
:103A10006D1CA5633046BDE8F08110B5044690F8F2
:103A2000590058B101280CD002280FD0502080F343
:103A30001188BFF34F8FBFF36F8FFEE7206B00F04D
:103A400091FB2046BDE8104000F08CBB10BD00008B
:103A500010484FF42051420706D0C01D0D4920F0F8
:103A60000700411AC1F520510B4A00230144C2E965
:103A700000030839103A21F0070111604B600B6018
:103A80000B1AC0E9001393604FF000405360D06000
:103A900070470000200E002078000020144E154CC6
:103AA000A6F29C474FF08058DFF84C9012E000BF20
:103AB00000F024FBF068C568281D00F0C3FA2069F7
:103AC000401E2061E068401EE06000F037FB2846A1
:103AD000FFF7A3FFE0680028EAD138680128F9D988
:103AE000C9F80080BFF34F8FBFF36F8FF2E700007C
:103AF000280600201400002004ED00E070B51D46EB
:103B0000049C51B1C4F80020C4E90F0101212046F2
:103B100000F036FD84F84C5070BD2460F4E72DE9C8
:103B2000F0470E46DDE90984174682469100994622
:103B3000089DA522206BFCF765FB6FF00301206B4D
:103B400001EB8701084420F00707780707D05020D1
:103B500080F31188BFF34F8FBFF36F8FFEE72218FA
:103B6000315C82F83410315C11B1401C1028F6D35E
:103B7000002684F84360382D00D33725E562C4E978
:103B80001356201D00F093FA04F1180000F08FFA8C
:103B90002461C5F138006462A061666584F85860EC
:103BA0004A465146384600F03BFA2060B8F1000F13
:103BB00001D0C8F80040BDE8F087000030B51149D9
:103BC00000E011460A688242FBD34B685C188442CD
:103BD00003D1406818444860084643681C18944262
:103BE00009D1084C103C2468A24209D052681A44FA
:103BF00042600A6812680260814200D0086030BDED
:103C00000460F9E77800002070B5002441600B4D96
:103C10000061914206D8D11A8269914206D2011DF3
:103C2000686807E09A4203D2994201D3012403E075
:103C3000011D286800F03EFA204670BD50000020AB
:103C400010B5044600F05AFAA06B28B15FF00004EA
:103C500000F074FA204610BD0124F9E730B589B0B0
:103C6000304D55E00498002806DADDE90601059A92
:103C70009047049800284BDB069C606910B1201D1A
:103C800000F0E0F902A800F0B9F8024604980A280A
:103C90003ED2DFE800F00505053D263705053D2647
:103CA0000598A169034601442046FFF7ADFF00B324
:103CB000616A20468847E069012829D100200090E8
:103CC0000598A169002342181946204601F05AF8C8
:103CD00078B9502080F31188BFF34F8FBFF36F8FF7
:103CE000FEE70598A06128B1811813462046FFF72A
:103CF0008BFF0DE0502080F31188BFF34F8FBFF38F
:103D00006F8FFEE794F82C0010B9204600F02AFAD5
:103D1000002204A9A86800F085FD0028A2D109B0FE
:103D200030BD0000500000202DE9FC410F46054643
:103D300000F064FB01A800F061F80446019818B196
:103D400000F08EFFBDE8FC81224EAFB170680068C4
:103D5000A8B30027291B3A46B06800F081FA00F0AA
:103D60007FFF0028EED11C494FF080500860BFF360
:103D70004F8FBFF36F8FE5E7A542EBD800F070FFE0
:103D800030682746C068C468201D00F05BF9E06910
:103D9000012810D1A0692B4641193A462046FFF769
:103DA00033FF40B100200346014600902A462046DA
:103DB00000F0E8FF20B1616A20468847C2E707E0CB
:103DC000502080F31188BFF34F8FBFF36F8FFEE752
:103DD0000127BFE75000002004ED00E006484168DD
:103DE000096829B14168C968C968496801637047B1
:103DF0004FF0FF31FAE700001400002070B50546CF
:103E000000F04CFE064E04463069844203D200F0B6
:103E100009F8012000E0002028602046346170BDD0
:103E200050000020F8B5194D1FE0C068C46806684E
:103E3000201D00F007F9616A20468847E0690128E3
:103E400013D1A0693044B04206D924616060211DBD
:103E5000286800F02FF908E0002003460146009092
:103E60003246204600F08EFF38B1286801680029EC
:103E7000DBD16968C5E90010F8BD502080F31188D6
:103E8000BFF34F8FBFF36F8FFEE70000500000209D
:103E900008484068401C4FF0500080F3118804D05F
:103EA000BFF34F8FBFF36F8FFEE7BFF34F8FBFF3AB
:103EB0006F8FFEE780000020074C2068016841B149
:103EC000C0680021D0F80000FFF72EFFFFF7C6FE04
:103ED000F3E701210020F7E7500000202DE9F04131
:103EE000044600F00BF994F9455004F1240609E06A
:103EF000606A48B1304600F07BFE08B100F000FA7D
:103F00006D1E6DB2002DF3DC4FF0FF3684F8456076
:103F100000F014F900F0F2F894F9445004F110079D
:103F200009E0206948B1384600F062FE08B100F0AF
:103F3000E7F96D1E6DB2002DF3DC84F84460BDE836
:103F4000F04100F0FBB800002DE9F04105460027E4
:103F500000F054FA314E306808B9FFF779FDF06887
:103F600005424BD1C5B3083568070ED005F00700F0
:103F7000C0F108000544680707D0502080F311887D
:103F8000BFF34F8FBFF36F8FFEE72DB3706885428D
:103F900034D82248103001460C6801E020460C4617
:103FA0006168A94202D221680029F7D131688C42A8
:103FB00024D007682168016060680837411B102918
:103FC0000FD96019420708D0502080F31188BFF341
:103FD0004F8FBFF36F8FFEE710E041606560FFF722
:103FE000EDFD61687068401A7060B268904200D25E
:103FF000B060F06801430020C4E9000100F030FE29
:10400000780707D0502080F31188BFF34F8FBFF39C
:104010006F8FFEE73846BDE8F081000068000020A1
:1040200010B5031F4FF080741C601B1F21F00101AD
:104030001960191F024B0B60143940380A6010BD1B
:10404000913E0008D0E9013201699A60D0E901236C
:104050005A604A68824201D182684A600022026145
:104060000868401E0860086870470000034B036042
:1040700003F15C0008608020106070476807002032
:10408000044B036003F15C0008604FF48070106023
:1040900070470000C409002000F108014FF0FF3212
:1040A000C0E90112C1600161002101607047002177
:1040B0000161704730B50B685A1C02D000F108024C
:1040C00002E0026904E02246546825689D42FAD95C
:1040D00053684B6099608A60516008610168491CAF
:1040E000016030BD42684A6093688B609368596094
:1040F000916008610168491C01607047502080F39D
:104100001188BFF34F8FBFF36F8F0A494868401C77
:10411000486001280CD10848006810F0FF0F07D054
:10412000502080F31188BFF34F8FBFF36F8FFEE7EE
:10413000704700008000002004ED00E00849486856
:1041400028B1401E486001D180F31188704750208B
:1041500080F31188BFF34F8FBFF36F8FFEE700002E
:104160008000002070B5002827D0144DA0F108046D
:104170006168E868014207D1502080F31188BFF3DD
:104180004F8FBFF36F8FFEE722683AB1502080F364
:104190001188BFF34F8FBFF36F8FFEE781436160DC
:1041A00000F02CF960686968084468602046FFF7F1
:1041B00005FDBDE8704000F053BD70BD68000020F3
:1041C0004FF0E02000210161816105494FF47A72CE
:1041D0000968B1FBF2F1491E416107210161704795
:1041E0001000002010B5FBF7D5FF114910280ED3A1
:1041F00000F1E02090F8F0030A78904207D25020B6
:1042000080F31188BFF34F8FBFF36F8FFEE709482C
:104210000068896800F4E060884207D9502080F384
:104220001188BFF34F8FBFF36F8FFEE710BD000003
:10423000800000200CED00E010B5084B002200BF0C
:1042400053F832401CB1521C082AF9D310BD43F870
:10425000321003EBC201486010BD00004C01002089
:1042600070B515460E460446FFF748FF94F9441012
:104270000020491C01D184F8440094F94510491CE0
:1042800001D184F84500FFF759FFA06B28B92A46F1
:10429000314604F1240000F051F82046BDE870409A
:1042A000FFF71CBE10B5020014D00F48806B38B168
:1042B000502080F31188BFF34F8FBFF36F8FFEE75D
:1042C00000F09CF800211046FFF79CFA00F0C8FCB3
:1042D000002807D105494FF080500860BFF34F8F89
:1042E000BFF36F8F10BD00001400002004ED00E04C
:1042F00002498A6A026049694160704714000020DF
:1043000001490120486270471400002010B50C4696
:1043100050B1094909681831FFF7CCFE2046BDE8C5
:1043200010400121FFF76EBA502080F31188BFF3CF
:104330004F8FBFF36F8FFEE71400002070B5144657
:104340000D4668B10A4909681831FFF7CBFE0CB178
:104350004FF0FF3521462846BDE87040FFF752BABE
:10436000502080F31188BFF34F8FBFF36F8FFEE7AC
:104370001400002030B587B00024039405AA04A9D6
:1043800003A80494FFF772FEDDE903010094CDE970
:104390000110002315A11748059A00F046FB164DA1
:1043A000002868631FD000F0BDFC012809D0401C24
:1043B00019D1502080F31188BFF34F8FBFF36F8F57
:1043C000FEE7502080F31188BFF34F8FBFF36F8F4C
:1043D0004FF0FF3028630120E8616C6107B0BDE851
:1043E000304000F045B807B030BD000049444C45AE
:1043F000000000009D3A0008140000200248816B74
:10440000491C81637047000014000020164810B555
:10441000816B11B10121416210BD002141628169AE
:10442000124A01E0B9B1491E01EB810352F8233071
:10443000002BF7D001EB810302EB830202F10804A9
:1044400053685B685360A34201D15B685360DA68CC
:104450000260816110BD502080F31188BFF34F8F3F
:10446000BFF36F8FFEE70000140000208C010020D6
:104470001CB5264908780190FF20087008788DF84F
:1044800000009DF800009DF8002000F0F000904230
:1044900007D0502080F31188BFF34F8FBFF36F8F89
:1044A000FEE79DF800001A4B00F05000187007203E
:1044B000986005E09DF8002052008DF80020401E15
:1044C0009DF800201206F5D49860032807D05020EC
:1044D00080F31188BFF34F8FBFF36F8FFEE74FF468
:1044E00040709860019808700A48016841F47001B2
:1044F0000160016841F070410160FFF761FE00203A
:104500005860FBF711FE00201CBD000000E400E035
:104510008000002020ED00E038B5049D18B153B1B3
:10452000CAB181B120E0502080F31188BFF34F8FD2
:10453000BFF36F8FFEE7502080F31188BFF34F8FDA
:10454000BFF36F8FFEE7502080F31188BFF34F8FCA
:10455000BFF36F8FFEE739B1502080F31188BFF3AE
:104560004F8FBFF36F8FFEE750241C46012384F862
:1045700046302B460094FFF7C1FA204638BD0000B4
:1045800070B50D46040025D0FFF7B8FDD4E90F2023
:10459000216802FB001161600021A1632168A16014
:1045A0000A46D4E90F01401E00FB0121E1602146CB
:1045B0004FF0FF3001F8440F487004F110008DB146
:1045C000FFF76AFD04F12400FFF766FDFFF7B6FD73
:1045D000012070BD502080F31188BFF34F8FBFF3CF
:1045E0006F8FFEE721690029F0D000F001FB002861
:1045F000ECD004494FF080500860BFF34F8FBFF3F9
:104600006F8FE3E704ED00E02DE9FF4782B01D4620
:104610008A464FF00008040003D0BAF1000F08D01A
:1046200011E0502080F31188BFF34F8FBFF36F8FDD
:10463000FEE7206C38B1502080F31188BFF34F8F14
:10464000BFF36F8FFEE7022D0AD1E06B012807D080
:10465000502080F31188BFF34F8FBFF36F8FFEE7B9
:1046600000F00EFA3F4F4FF000094FF0805648B966
:10467000049838B1502080F31188BFF34F8FBFF3F7
:104680006F8FFEE7FFF73AFDA06BE16B884207D31F
:10469000022D05D00498D0B1B8F1000F1AD01EE059
:1046A0002A4651462046FFF782F9616A19B104F1A2
:1046B000240000F09DFA20B13E60BFF34F8FBFF39E
:1046C0006F8FFFF73BFD012006B0BDE8F087FFF7D5
:1046D00035FD22E06846FFF70BFE4FF00108FFF7BB
:1046E0002DFDFFF78BFEFFF709FD94F94400401CF8
:1046F00001D184F8449094F94500401C01D184F81C
:104700004590FFF71BFD04A9684600F027F930B17A
:104710002046FFF7E3FB00F0A3FA0020D4E7FFF701
:10472000EDFCA06BE16B884213D1FFF707FD04F1AC
:1047300010000499FFF7EAFD2046FFF7CFFB00F0D9
:104740008FFA00289ED13E60BFF34F8FBFF36F8F6B
:1047500098E7FFF7F3FC2046FFF7C0FB00F080FA74
:1047600090E7000004ED00E02DE9F0471F46904679
:104770008946040003D0B9F1000F08D011E05020A1
:1047800080F31188BFF34F8FBFF36F8FFEE7206C6C
:1047900038B1502080F31188BFF34F8FBFF36F8F74
:1047A000FEE7022F0AD1E06B012807D0502080F3EA
:1047B0001188BFF34F8FBFF36F8FFEE7FFF712FD36
:1047C0005020EFF3118680F31188BFF34F8FBFF3B2
:1047D0006F8FA06BE16B884206D3022F04D00020BC
:1047E00086F31188BDE8F08794F945503A4649466A
:1047F0002046FFF7DCF8681C04D06D1C84F8455097
:104800000120EDE7606A0028FAD004F1240000F0EE
:10481000EFF90028F4D0B8F1000FF1D00121C8F869
:104820000010EDE72DE9F747002683B08A46040023
:1048300003D0BAF1000F08D011E0502080F31188A6
:10484000BFF34F8FBFF36F8FFEE7206C38B150205E
:1048500080F31188BFF34F8FBFF36F8FFEE700F037
:104860000FF9DFF8F4804FF000094FF0805748B996
:10487000059838B1502080F31188BFF34F8FBFF3F4
:104880006F8FFEE7FFF73AFCA56BC5B15146204696
:10489000FFF77AF86D1EA563206950B104F110008E
:1048A00000F0A6F928B1C8F80070BFF34F8FBFF32E
:1048B0006F8FFFF743FC012006B0BDE8F087059835
:1048C00008B11EB106E0FFF739FC27E06846FFF7A4
:1048D0000FFD0126FFF732FCFFF790FDFFF70EFCFE
:1048E00094F94400401C01D184F8449094F94500A7
:1048F000401C01D184F84590FFF720FC05A96846CB
:1049000000F02CF8002820460AD0FFF7E7FA00F064
:10491000A7F92046FFF794F90028B3D00020CBE791
:10492000FFF78EF990B104F124000599FFF7EEFC32
:104930002046FFF7D3FA00F093F90028A2D1C8F877
:104940000070BFF34F8FBFF36F8F9BE72046FFF7D9
:10495000C5FA00F085F995E704ED00E02DE9F04196
:104960000C46050011D0C4B1FFF7C8FB174B5A69BC
:104970006E682068911B471C17D02F689B6A9F4266
:1049800019D0964217D8012410E0502080F31188E6
:10499000BFF34F8FBFF36F8FFEE7502080F3118876
:1049A000BFF34F8FBFF36F8FFEE70024FFF7C6FB07
:1049B0002046BDE8F081884205D9401A206028468B
:1049C000FFF796FCF1E700202060DCE714000020F0
:1049D0002DE9FF5F8346DDE90E87994616468A4634
:1049E0009000FFF7B1FA05001CD05C20FFF7ACFA8D
:1049F000040014D00020256384F85900CDE902405A
:104A0000CDE900874B46324651465846FFF787F8B6
:104A10002046FEF725FF012004B0BDE8F09F2846A0
:104A2000FFF7A0FB4FF0FF30F6E7F0B585B0DDE90A
:104A30000B640A9DA6B1DCB15C27009726630226B1
:104A400084F85960002604AFCDE90246CDE900574D
:104A5000FFF765F82046FEF703FF049805B0F0BDA8
:104A6000502080F31188BFF34F8FBFF36F8FFEE7A5
:104A7000502080F31188BFF34F8FBFF36F8FFEE795
:104A80000548C16919B1806B18B100207047012039
:104A90007047022070470000140000200148406960
:104AA00070470000140000202DE9F0412E4C002733
:104AB000A06B40B1206A401C2062606A00B10127EF
:104AC0003846BDE8F0816669761C666113D160687E
:104AD000006838B1502080F31188BFF34F8FBFF3C7
:104AE0006F8FFEE76068A1686160A060A06A401CEB
:104AF000A062FFF773F9206BDFF87080864209D35C
:104B00006068006880B16068C068C568686886428F
:104B10000DD220632068C06A00EB800158F82100A4
:104B20000128CAD90127C8E74FF0FF30F1E7281D57
:104B3000FFF788FAA86A18B105F11800FFF782FAA2
:104B4000E86AA169884200D9A06100EB800108EB06
:104B50008100291DFFF7C6FAE86A2168C96A884200
:104B6000CED30127CCE70000140000208C010020E8
:104B700070B504004FF0000133D01B4D286884420B
:104B800007D0502080F31188BFF34F8FBFF36F8F92
:104B9000FEE7206D38B1401E2065E36CE26A9A4260
:104BA0001FD040B11DE0502080F31188BFF34F8F1C
:104BB000BFF36F8FFEE7201DFFF744FAE06CE06261
:104BC000C0F13800A061E06AA969884200D9A861F3
:104BD000064900EB800001EB8000211DFFF782FAFF
:104BE0000121084670BD0000140000208C01002047
:104BF00070B5C068C46854B104F118000646FFF7E8
:104C000021FA144DA86B50B13146134815E05020DD
:104C100080F31188BFF34F8FBFF36F8FFEE7201D26
:104C2000FFF710FAE06AA969884200D9A8610B4928
:104C300000EB800001EB8000211DFFF753FAE06AD2
:104C40002968C96A884202D90120686270BD0020C3
:104C500070BD000014000020140600208C0100200C
:104C60002DE9F0472C4D00242746A86B38B1FFF7FB
:104C700045FAA86B401EA863A86B40B146E05020DF
:104C800080F31188BFF34F8FBFF36F8FFEE7296961
:104C9000224E0120D1B3A6F5916980463068E0B17B
:104CA000F068C46804F11800FFF7CCF9201DFFF785
:104CB000C9F9E06AA969884200D9A86100EB8001BE
:104CC00009EB8100211DFFF70DFAE06A2968C96A26
:104CD0008842E3D3C5F82480E0E70CB1FFF77EF803
:104CE0002C6A4CB14FEA0806FFF7DEFE00B16E6297
:104CF000641EF9D100202862686A38B1084901278A
:104D000038070860BFF34F8FBFF36F8FFFF716FAB6
:104D10003846BDE8F087000014000020140600208B
:104D200004ED00E010B586B0FEF702FE114CA0685D
:104D3000B8B100200390049005AA04A903A8FFF7C6
:104D40009FF9DDE9032102208DE8070000230AA175
:104D50000B48059AFFF769FEE06010B106B001202C
:104D600010BD502080F31188BFF34F8FBFF36F8FBA
:104D7000FEE7000050000020546D7220537663005F
:104D8000B93E00082DE9FF411E46134602000A9D68
:104D90004FF0000016D0144CA768002F0FD0CDE9BB
:104DA00000130292062917DAFFF76AFE02284FF075
:104DB00000030FD000226946A068FFF725FC04B06D
:104DC000BDE8F081502080F31188BFF34F8FBFF30F
:104DD0006F8FFEE72A46EEE70023324669463846E3
:104DE000FFF7C2FCEBE7000050000020604F000816
:104DF00000000000000000000000000000000000B3
:104E00000002000018000000000000000000000088
:104E1000010202030405060708090A0B0C0D0E0F18
:104E2000101000000000000000000102030406074B
:104E3000080900000000010203040000C04F000840
:104E40000000000000000000000000000000000062
:104E5000000200001E000000000000000000000032
:104E6000B44F000800000000000000000000000037
:104E700000000000000200001D0000000000000013
:104E800000000000944F0008000000000000000037
:104E90000000000000000000000200001C000000F4
:104EA00000000000000000006C4F0008000000003F
:104EB00000000000000000000000000000020000F0
:104EC0001B0000000000000000000000A84F0008C8
:104ED00000000000000000000000000000000000D2
:104EE000000200001A0000000000000000000000A6
:104EF000804F0008000000000000000000000000DB
:104F00000000000000020000190000000000000086
:104F10000000000001020506070A0B0C0F0000004C
:104F200004FA97999999D93FAF788E1DC571CC3FF6
:104F30009FC678D0099AC33F935555555555E53FBF
:104F4000599322942449D23FDE03CB966446C73F4F
:104F500044523EDF12F1C23F00000000000000009A
:104F600064656661756C745461736B00626174741E
:104F700065727947617567655461736B0000000065
:104F800062616C616E6365436F6E74726F6C5461C5
:104F9000736B00007374617465436F6E74726F6C31
:104FA0005461736B00000000636F6D6D5461736B2F
:104FB00000000000646174614163715461736B00AF
:104FC0006661756C7450726F746563745461736B51
:104FD00000000000F44F000800000020BC000000AA
:104FE0006A2A0008B0500008BC0000208C3900007C
:104FF0007A2A0008000000000100000010000000F4
:10500000000000000024F400000000000000000088
:105010000000000000000000000000000000000090
:105020000000000000000000000000000000000080
:105030000000000000000000000000000000000070
:105040000000000000000000000000000000000060
:105050000000000000000000000000000000000050
:105060000000000000000000000000000000000040
:105070000000000000000000AAAAAAAA0000000088
:105080000000000000000000000000000000000020
:10509000000000000000000000000000000C0140C3
:1050A00000010002080000000000000000000000F5
:04000005080000ED02
:00000001FF
